S00D000052693263502E7372656377
S113000019C028C027C026C025C024C023C022C0D0
S113001021C020C01FC01EC01DC01CC01BC01AC0F0
S113002019C018C017C016C015C014C013C012C020
S113003011C010C011241FBECFEFD2E0DEBFCDBF70
S113004021E0A0E0B1E001C01D92A230B207E1F7C7
S11300503ED16BC1D5CF84EA8093BC00ECEBF0E0D9
S113006080818823ECF78091B900887F883081F003
S11300708091B900887F803159F08091B90091E076
S113008090930101887F8093000184E98093BC00F0
S113009008958093BB0084E88093BC00ECEBF0E00F
S11300A080818823ECF78091B900887F8831A9F09A
S11300B08091B900887F803481F08091B900887F75
S11300C0803559F08091B90094E090930101887FC4
S11300D08093000184E98093BC0008958093BB0061
S11300E0613011F084E801C084EC8093BC00ECEB37
S11300F0F0E080818823ECF78091B900887F883212
S113010059F08091B90092E090930101887F809327
S1130110000184E98093BC000895813011F084E8E3
S113012001C084EC8093BC00ECEBF0E08081882378
S1130130ECF78091B900887F803519F48091BB0079
S113014008958091B900887F883519F48091BB00A7
S113015008958091B90093E090930101887F809382
S1130160000184E98093BC0080E008958CE18093D1
S1130170B8001092B9000895CF93DF93C82FD62FFB
S11301801092010110920001803400F564DF809127
S1130190010181111BC080ED7CDF8091010181117F
S11301A015C060E08C2F9ADF8091010181110EC08F
S11301B060E08D2F93DF80910101811107C01092BF
S11301C001011092000184E98093BC00DF91CF917A
S11301D00895CF93C82F109201011092000180342A
S11301E050F539DF80910101811127C080ED51DF85
S11301F080910101811123C060E08C2F6FDF809119
S1130200010181111EC027DF8091010181111BC0F2
S113021081ED3FDF80910101811117C07EDF909154
S11302200101911114C0109201011092000194E98E
S11302309093BC000DC080E00BC080E009C080E05A
S113024007C080E005C080E003C080E001C080E01A
S1130250CF910895CF93C82F80E0BBDF682F6F77CD
S113026080E08ADF6C2F87E087DFCF910895509874
S1130270519A1092C50083E08093C4001092C0008C
S113028088E98093C1000895E0ECF0E0908195FF47
S1130290FDCF8093C6000895803130F48A3010F089
S11302A0895C0895805D089580E30895CF93C82FF5
S11302B082958F70F1DFE8DF8C2F8F70EDDFE4DF44
S11302C0CF910895209A579A289A5F9A0895109288
S11302D060004CDF80E1BEDFCADFF4DF7894D8EE43
S11302E0CDEF80E2D1DF82E074DFE0DF8AE3CCDFB0
S11302F081E06FDFDBDF8AE3C7DF80E06ADFD6DF20
S11303008DE0C2DF8D2F9C2F000001970097E1F74D
S11303108D2F9C2F000001970097E1F78D2F9C2FC4
S1110320000001970097E1F7DCCFF894FFCFBF
S9030000FC
